{
  "_format": "hh-sol-artifact-1",
  "contractName": "DiamondLoupeFacet",
  "sourceName": "contracts/facets/DiamondLoupeFacet.sol",
  "abi": [
    {
      "inputs": [
        {
          "internalType": "bytes4",
          "name": "_functionSelector",
          "type": "bytes4"
        }
      ],
      "name": "facetAddress",
      "outputs": [
        {
          "internalType": "address",
          "name": "facetAddress_",
          "type": "address"
        }
      ],
      "stateMutability": "view",
      "type": "function"
    },
    {
      "inputs": [],
      "name": "facetAddresses",
      "outputs": [
        {
          "internalType": "address[]",
          "name": "facetAddresses_",
          "type": "address[]"
        }
      ],
      "stateMutability": "view",
      "type": "function"
    },
    {
      "inputs": [
        {
          "internalType": "address",
          "name": "_facet",
          "type": "address"
        }
      ],
      "name": "facetFunctionSelectors",
      "outputs": [
        {
          "internalType": "bytes4[]",
          "name": "facetFunctionSelectors_",
          "type": "bytes4[]"
        }
      ],
      "stateMutability": "view",
      "type": "function"
    },
    {
      "inputs": [],
      "name": "facets",
      "outputs": [
        {
          "components": [
            {
              "internalType": "address",
              "name": "facetAddress",
              "type": "address"
            },
            {
              "internalType": "bytes4[]",
              "name": "functionSelectors",
              "type": "bytes4[]"
            }
          ],
          "internalType": "struct IDiamondLoupe.Facet[]",
          "name": "facets_",
          "type": "tuple[]"
        }
      ],
      "stateMutability": "view",
      "type": "function"
    }
  ],
  "bytecode": "0x608060405234801561001057600080fd5b50610b25806100206000396000f3fe608060405234801561001057600080fd5b506004361061004c5760003560e01c806352ef6b2c146100515780637a0ed6271461006f578063adfca15e1461008d578063cdffacc6146100bd575b600080fd5b6100596100ed565b6040516100669190610671565b60405180910390f35b61007761018a565b604051610084919061087c565b60405180910390f35b6100a760048036038101906100a291906108cf565b6103ad565b6040516100b4919061096b565b60405180910390f35b6100d760048036038101906100d291906109b9565b610498565b6040516100e491906109f5565b60405180910390f35b606060006100f9610524565b90508060020180548060200260200160405190810160405280929190818152602001828054801561017f57602002820191906000526020600020905b8160009054906101000a900473ffffffffffffffffffffffffffffffffffffffff1673ffffffffffffffffffffffffffffffffffffffff1681526020019060010190808311610135575b505050505091505090565b60606000610196610524565b90506000816002018054905090508067ffffffffffffffff8111156101be576101bd610a10565b5b6040519080825280602002602001820160405280156101f757816020015b6101e4610551565b8152602001906001900390816101dc5790505b50925060005b818110156103a757600083600201828154811061021d5761021c610a3f565b5b9060005260206000200160009054906101000a900473ffffffffffffffffffffffffffffffffffffffff1690508085838151811061025e5761025d610a3f565b5b60200260200101516000019073ffffffffffffffffffffffffffffffffffffffff16908173ffffffffffffffffffffffffffffffffffffffff16815250508360010160008273ffffffffffffffffffffffffffffffffffffffff1673ffffffffffffffffffffffffffffffffffffffff16815260200190815260200160002060000180548060200260200160405190810160405280929190818152602001828054801561036c57602002820191906000526020600020906000905b82829054906101000a900460e01b7bffffffffffffffffffffffffffffffffffffffffffffffffffffffff1916815260200190600401906020826003010492830192600103820291508084116103195790505b505050505085838151811061038457610383610a3f565b5b60200260200101516020018190525050808061039f90610aa7565b9150506101fd565b50505090565b606060006103b9610524565b90508060010160008473ffffffffffffffffffffffffffffffffffffffff1673ffffffffffffffffffffffffffffffffffffffff16815260200190815260200160002060000180548060200260200160405190810160405280929190818152602001828054801561048b57602002820191906000526020600020906000905b82829054906101000a900460e01b7bffffffffffffffffffffffffffffffffffffffffffffffffffffffff1916815260200190600401906020826003010492830192600103820291508084116104385790505b5050505050915050919050565b6000806104a3610524565b9050806000016000847bffffffffffffffffffffffffffffffffffffffffffffffffffffffff19167bffffffffffffffffffffffffffffffffffffffffffffffffffffffff1916815260200190815260200160002060000160009054906101000a900473ffffffffffffffffffffffffffffffffffffffff16915050919050565b6000807fc8fcad8db84d3cc18b4c41d551ea0ee66dd599cde068d998e57d5e09332c131c90508091505090565b6040518060400160405280600073ffffffffffffffffffffffffffffffffffffffff168152602001606081525090565b600081519050919050565b600082825260208201905092915050565b6000819050602082019050919050565b600073ffffffffffffffffffffffffffffffffffffffff82169050919050565b60006105d8826105ad565b9050919050565b6105e8816105cd565b82525050565b60006105fa83836105df565b60208301905092915050565b6000602082019050919050565b600061061e82610581565b610628818561058c565b93506106338361059d565b8060005b8381101561066457815161064b88826105ee565b975061065683610606565b925050600181019050610637565b5085935050505092915050565b6000602082019050818103600083015261068b8184610613565b905092915050565b600081519050919050565b600082825260208201905092915050565b6000819050602082019050919050565b600081519050919050565b600082825260208201905092915050565b6000819050602082019050919050565b60007fffffffff0000000000000000000000000000000000000000000000000000000082169050919050565b610720816106eb565b82525050565b60006107328383610717565b60208301905092915050565b6000602082019050919050565b6000610756826106bf565b61076081856106ca565b935061076b836106db565b8060005b8381101561079c5781516107838882610726565b975061078e8361073e565b92505060018101905061076f565b5085935050505092915050565b60006040830160008301516107c160008601826105df565b50602083015184820360208601526107d9828261074b565b9150508091505092915050565b60006107f283836107a9565b905092915050565b6000602082019050919050565b600061081282610693565b61081c818561069e565b93508360208202850161082e856106af565b8060005b8581101561086a578484038952815161084b85826107e6565b9450610856836107fa565b925060208a01995050600181019050610832565b50829750879550505050505092915050565b600060208201905081810360008301526108968184610807565b905092915050565b600080fd5b6108ac816105cd565b81146108b757600080fd5b50565b6000813590506108c9816108a3565b92915050565b6000602082840312156108e5576108e461089e565b5b60006108f3848285016108ba565b91505092915050565b600082825260208201905092915050565b6000610918826106bf565b61092281856108fc565b935061092d836106db565b8060005b8381101561095e5781516109458882610726565b97506109508361073e565b925050600181019050610931565b5085935050505092915050565b60006020820190508181036000830152610985818461090d565b905092915050565b610996816106eb565b81146109a157600080fd5b50565b6000813590506109b38161098d565b92915050565b6000602082840312156109cf576109ce61089e565b5b60006109dd848285016109a4565b91505092915050565b6109ef816105cd565b82525050565b6000602082019050610a0a60008301846109e6565b92915050565b7f4e487b7100000000000000000000000000000000000000000000000000000000600052604160045260246000fd5b7f4e487b7100000000000000000000000000000000000000000000000000000000600052603260045260246000fd5b7f4e487b7100000000000000000000000000000000000000000000000000000000600052601160045260246000fd5b6000819050919050565b6000610ab282610a9d565b91507fffffffffffffffffffffffffffffffffffffffffffffffffffffffffffffffff8203610ae457610ae3610a6e565b5b60018201905091905056fea26469706673582212205260e63b3fadab5be36be25d2b28aad86fbc52449ab7b573dc25b7d78ce3a71364736f6c63430008100033",
  "linkReferences": {},
  "deployedLinkReferences": {}
}