{
  "_format": "hh-sol-artifact-1",
  "contractName": "HeadFacet",
  "sourceName": "contracts/facets/HeadFacet.sol",
  "abi": [
    {
      "inputs": [
        {
          "internalType": "uint256",
          "name": "_salt",
          "type": "uint256"
        }
      ],
      "stateMutability": "nonpayable",
      "type": "constructor"
    },
    {
      "inputs": [],
      "name": "func1",
      "outputs": [
        {
          "internalType": "uint256",
          "name": "",
          "type": "uint256"
        }
      ],
      "stateMutability": "view",
      "type": "function"
    },
    {
      "inputs": [],
      "name": "func2",
      "outputs": [
        {
          "internalType": "uint256",
          "name": "",
          "type": "uint256"
        }
      ],
      "stateMutability": "view",
      "type": "function"
    },
    {
      "inputs": [],
      "name": "func3",
      "outputs": [
        {
          "internalType": "uint256",
          "name": "",
          "type": "uint256"
        }
      ],
      "stateMutability": "view",
      "type": "function"
    },
    {
      "inputs": [],
      "name": "func4",
      "outputs": [
        {
          "internalType": "uint256",
          "name": "",
          "type": "uint256"
        }
      ],
      "stateMutability": "view",
      "type": "function"
    },
    {
      "inputs": [],
      "name": "func5",
      "outputs": [
        {
          "internalType": "uint256",
          "name": "",
          "type": "uint256"
        }
      ],
      "stateMutability": "view",
      "type": "function"
    }
  ],
  "bytecode": "0x60a060405234801561001057600080fd5b506040516103023803806103028339818101604052810190610032919061007b565b8060808181525050506100a8565b600080fd5b6000819050919050565b61005881610045565b811461006357600080fd5b50565b6000815190506100758161004f565b92915050565b60006020828403121561009157610090610040565b5b600061009f84828501610066565b91505092915050565b6080516102246100de6000396000818160f60152818161011e015281816101460152818161016e015261019601526102246000f3fe608060405234801561001057600080fd5b50600436106100575760003560e01c8063013d45d61461005c578063741351541461007a5780638ca174a314610098578063b1ade4db146100b6578063da3ba911146100d4575b600080fd5b6100646100f2565b60405161007191906101d3565b60405180910390f35b61008261011a565b60405161008f91906101d3565b60405180910390f35b6100a0610142565b6040516100ad91906101d3565b60405180910390f35b6100be61016a565b6040516100cb91906101d3565b60405180910390f35b6100dc610192565b6040516100e991906101d3565b60405180910390f35b60007f0000000000000000000000000000000000000000000000000000000000000000905090565b60007f0000000000000000000000000000000000000000000000000000000000000000905090565b60007f0000000000000000000000000000000000000000000000000000000000000000905090565b60007f0000000000000000000000000000000000000000000000000000000000000000905090565b60007f0000000000000000000000000000000000000000000000000000000000000000905090565b6000819050919050565b6101cd816101ba565b82525050565b60006020820190506101e860008301846101c4565b9291505056fea26469706673582212203002d89a96ba86e6536724ef9fc2b7e36ff54a33d97ebb5ac91422a636ddca9064736f6c63430008100033",
  "linkReferences": {},
  "deployedLinkReferences": {}
}