{
  "_format": "hh-sol-artifact-1",
  "contractName": "DiamondCutFacet",
  "sourceName": "contracts/facets/DiamondCutFacet.sol",
  "abi": [
    {
      "anonymous": false,
      "inputs": [
        {
          "components": [
            {
              "internalType": "address",
              "name": "facetAddress",
              "type": "address"
            },
            {
              "internalType": "enum IDiamondCut.FacetCutAction",
              "name": "action",
              "type": "uint8"
            },
            {
              "internalType": "bytes4[]",
              "name": "functionSelectors",
              "type": "bytes4[]"
            }
          ],
          "indexed": false,
          "internalType": "struct IDiamondCut.FacetCut[]",
          "name": "_diamondCut",
          "type": "tuple[]"
        },
        {
          "indexed": false,
          "internalType": "address",
          "name": "_init",
          "type": "address"
        },
        {
          "indexed": false,
          "internalType": "bytes",
          "name": "_calldata",
          "type": "bytes"
        }
      ],
      "name": "DiamondCut",
      "type": "event"
    },
    {
      "inputs": [
        {
          "components": [
            {
              "internalType": "address",
              "name": "facetAddress",
              "type": "address"
            },
            {
              "internalType": "enum IDiamondCut.FacetCutAction",
              "name": "action",
              "type": "uint8"
            },
            {
              "internalType": "bytes4[]",
              "name": "functionSelectors",
              "type": "bytes4[]"
            }
          ],
          "internalType": "struct IDiamondCut.FacetCut[]",
          "name": "_diamondCut",
          "type": "tuple[]"
        },
        {
          "internalType": "address",
          "name": "_init",
          "type": "address"
        },
        {
          "internalType": "bytes",
          "name": "_calldata",
          "type": "bytes"
        }
      ],
      "name": "diamondCut",
      "outputs": [],
      "stateMutability": "nonpayable",
      "type": "function"
    },
    {
      "inputs": [],
      "name": "undo",
      "outputs": [],
      "stateMutability": "nonpayable",
      "type": "function"
    }
  ],
  "bytecode": "0x608060405234801561001057600080fd5b506136b4806100206000396000f3fe608060405234801561001057600080fd5b50600436106100365760003560e01c80631f931c1c1461003b578063881be8f714610057575b600080fd5b61005560048036038101906100509190612538565b610061565b005b61005f6100d5565b005b6100696103de565b6100738585610479565b6100ce85859061008391906128d6565b8484848080601f016020809104026020016040519081016040528093929190818152602001838380828437600081840152601f19601f82011690508083019250505050505050610f0c565b5050505050565b6100dd6103de565b6102ab6100e86110a5565b600001600060016100f76110a5565b600101546101059190612924565b8152602001908152602001600020805480602002602001604051908101604052809291908181526020016000905b8282101561029057838290600052602060002090600202016040518060600160405290816000820160009054906101000a900473ffffffffffffffffffffffffffffffffffffffff1673ffffffffffffffffffffffffffffffffffffffff1673ffffffffffffffffffffffffffffffffffffffff1681526020016000820160149054906101000a900460ff1660028111156101d1576101d0612958565b5b60028111156101e3576101e2612958565b5b81526020016001820180548060200260200160405190810160405280929190818152602001828054801561027857602002820191906000526020600020906000905b82829054906101000a900460e01b7bffffffffffffffffffffffffffffffffffffffffffffffffffffffff1916815260200190600401906020826003010492830192600103820291508084116102255790505b50505050508152505081526020019060010190610133565b50505050600060405180602001604052806000815250610f0c565b60006102b56110a5565b6001015411156103dc5760005b6102ca6110a5565b600001600060016102d96110a5565b600101546102e79190612924565b81526020019081526020016000208054905081116103b9576103076110a5565b600001600060016103166110a5565b600101546103249190612924565b815260200190815260200160002080548061034257610341612987565b5b6001900381819060005260206000209060020201600080820160006101000a81549073ffffffffffffffffffffffffffffffffffffffff02191690556000820160146101000a81549060ff02191690556001820160006103a291906122d0565b5050905580806103b1906129b6565b9150506102c2565b506103c26110a5565b60010160008154809291906103d6906129fe565b91905055505b565b6103e66110d2565b60030160009054906101000a900473ffffffffffffffffffffffffffffffffffffffff1673ffffffffffffffffffffffffffffffffffffffff163373ffffffffffffffffffffffffffffffffffffffff1614610477576040517f08c379a000000000000000000000000000000000000000000000000000000000815260040161046e90612aaa565b60405180910390fd5b565b60005b82829050811015610f075761048f6122f8565b600060028111156104a3576104a2612958565b5b8484848181106104b6576104b5612aca565b5b90506020028101906104c89190612b08565b60200160208101906104da9190612b30565b60028111156104ec576104eb612958565b5b036106bf5760028160200190600281111561050a57610509612958565b5b9081600281111561051e5761051d612958565b5b815250506000816000019073ffffffffffffffffffffffffffffffffffffffff16908173ffffffffffffffffffffffffffffffffffffffff168152505083838381811061056e5761056d612aca565b5b90506020028101906105809190612b08565b806040019061058f9190612b5d565b80806020026020016040519081016040528093929190818152602001838360200280828437600081840152601f19601f8201169050808301925050505050505081604001819052506105df6110a5565b60000160006105ec6110a5565b60010154815260200190815260200160002081908060018154018082558091505060019003906000526020600020906002020160009091909190915060008201518160000160006101000a81548173ffffffffffffffffffffffffffffffffffffffff021916908373ffffffffffffffffffffffffffffffffffffffff16021790555060208201518160000160146101000a81548160ff0219169083600281111561069a57610699612958565b5b021790555060408201518160010190805190602001906106bb929190612341565b5050505b6002808111156106d2576106d1612958565b5b8484848181106106e5576106e4612aca565b5b90506020028101906106f79190612b08565b60200160208101906107099190612b30565b600281111561071b5761071a612958565b5b03610ac85760005b84848481811061073657610735612aca565b5b90506020028101906107489190612b08565b80604001906107579190612b5d565b9050811015610ac6576107686122f8565b60008160200190600281111561078157610780612958565b5b9081600281111561079557610794612958565b5b8152505060006107a36110d2565b905060008160000160008989898181106107c0576107bf612aca565b5b90506020028101906107d29190612b08565b80604001906107e19190612b5d565b878181106107f2576107f1612aca565b5b90506020020160208101906108079190612bc0565b7bffffffffffffffffffffffffffffffffffffffffffffffffffffffff19167bffffffffffffffffffffffffffffffffffffffffffffffffffffffff1916815260200190815260200160002060000160009054906101000a900473ffffffffffffffffffffffffffffffffffffffff16905080836000019073ffffffffffffffffffffffffffffffffffffffff16908173ffffffffffffffffffffffffffffffffffffffff168152505060008888888181106108c6576108c5612aca565b5b90506020028101906108d89190612b08565b80604001906108e79190612b5d565b868181106108f8576108f7612aca565b5b905060200201602081019061090d9190612bc0565b90506000600167ffffffffffffffff81111561092c5761092b6125de565b5b60405190808252806020026020018201604052801561095a5781602001602082028036833780820191505090505b509050818160008151811061097257610971612aca565b5b60200260200101907bffffffffffffffffffffffffffffffffffffffffffffffffffffffff191690817bffffffffffffffffffffffffffffffffffffffffffffffffffffffff1916815250508085604001819052506109cf6110a5565b60000160006109dc6110a5565b60010154815260200190815260200160002085908060018154018082558091505060019003906000526020600020906002020160009091909190915060008201518160000160006101000a81548173ffffffffffffffffffffffffffffffffffffffff021916908373ffffffffffffffffffffffffffffffffffffffff16021790555060208201518160000160146101000a81548160ff02191690836002811115610a8a57610a89612958565b5b02179055506040820151816001019080519060200190610aab929190612341565b50505050505050508080610abe906129b6565b915050610723565b505b60016002811115610adc57610adb612958565b5b848484818110610aef57610aee612aca565b5b9050602002810190610b019190612b08565b6020016020810190610b139190612b30565b6002811115610b2557610b24612958565b5b03610ed25760005b848484818110610b4057610b3f612aca565b5b9050602002810190610b529190612b08565b8060400190610b619190612b5d565b9050811015610ed057610b726122f8565b600181602001906002811115610b8b57610b8a612958565b5b90816002811115610b9f57610b9e612958565b5b815250506000610bad6110d2565b90506000816000016000898989818110610bca57610bc9612aca565b5b9050602002810190610bdc9190612b08565b8060400190610beb9190612b5d565b87818110610bfc57610bfb612aca565b5b9050602002016020810190610c119190612bc0565b7bffffffffffffffffffffffffffffffffffffffffffffffffffffffff19167bffffffffffffffffffffffffffffffffffffffffffffffffffffffff1916815260200190815260200160002060000160009054906101000a900473ffffffffffffffffffffffffffffffffffffffff16905080836000019073ffffffffffffffffffffffffffffffffffffffff16908173ffffffffffffffffffffffffffffffffffffffff16815250506000888888818110610cd057610ccf612aca565b5b9050602002810190610ce29190612b08565b8060400190610cf19190612b5d565b86818110610d0257610d01612aca565b5b9050602002016020810190610d179190612bc0565b90506000600167ffffffffffffffff811115610d3657610d356125de565b5b604051908082528060200260200182016040528015610d645781602001602082028036833780820191505090505b5090508181600081518110610d7c57610d7b612aca565b5b60200260200101907bffffffffffffffffffffffffffffffffffffffffffffffffffffffff191690817bffffffffffffffffffffffffffffffffffffffffffffffffffffffff191681525050808560400181905250610dd96110a5565b6000016000610de66110a5565b60010154815260200190815260200160002085908060018154018082558091505060019003906000526020600020906002020160009091909190915060008201518160000160006101000a81548173ffffffffffffffffffffffffffffffffffffffff021916908373ffffffffffffffffffffffffffffffffffffffff16021790555060208201518160000160146101000a81548160ff02191690836002811115610e9457610e93612958565b5b02179055506040820151816001019080519060200190610eb5929190612341565b50505050505050508080610ec8906129b6565b915050610b2d565b505b610eda6110a5565b6001016000815480929190610eee906129b6565b9190505550508080610eff906129b6565b91505061047c565b505050565b60005b835181101561105a576000848281518110610f2d57610f2c612aca565b5b6020026020010151905060008160200151905060006002811115610f5457610f53612958565b5b816002811115610f6757610f66612958565b5b03610f8357610f7e826000015183604001516110ff565b611045565b60016002811115610f9757610f96612958565b5b816002811115610faa57610fa9612958565b5b03610fc657610fc182600001518360400151611376565b611044565b600280811115610fd957610fd8612958565b5b816002811115610fec57610feb612958565b5b0361100857611003826000015183604001516115f7565b611043565b6040517f08c379a000000000000000000000000000000000000000000000000000000000815260040161103a90612c5f565b60405180910390fd5b5b5b50508080611052906129b6565b915050610f0f565b507f8faa70878671ccd212d20771b795c50af8fd3ff6cf27f4bde57e5d4de0aeb67383838360405161108e93929190612f34565b60405180910390a16110a08282611782565b505050565b6000807f3d9a5cc588624dbda45046c74356dfad84a095ad82ac943a96d4f7d7ceb9e30b90508091505090565b6000807fc8fcad8db84d3cc18b4c41d551ea0ee66dd599cde068d998e57d5e09332c131c90508091505090565b6000815111611143576040517f08c379a000000000000000000000000000000000000000000000000000000000815260040161113a90612feb565b60405180910390fd5b600061114d6110d2565b9050600073ffffffffffffffffffffffffffffffffffffffff168373ffffffffffffffffffffffffffffffffffffffff16036111be576040517f08c379a00000000000000000000000000000000000000000000000000000000081526004016111b59061307d565b60405180910390fd5b60008160010160008573ffffffffffffffffffffffffffffffffffffffff1673ffffffffffffffffffffffffffffffffffffffff1681526020019081526020016000206000018054905090506000816bffffffffffffffffffffffff160361122b5761122a8285611994565b5b60005b835181101561136f57600084828151811061124c5761124b612aca565b5b602002602001015190506000846000016000837bffffffffffffffffffffffffffffffffffffffffffffffffffffffff19167bffffffffffffffffffffffffffffffffffffffffffffffffffffffff1916815260200190815260200160002060000160009054906101000a900473ffffffffffffffffffffffffffffffffffffffff169050600073ffffffffffffffffffffffffffffffffffffffff168173ffffffffffffffffffffffffffffffffffffffff1614611340576040517f08c379a00000000000000000000000000000000000000000000000000000000081526004016113379061310f565b60405180910390fd5b61134c8583868a611a6f565b838061135790613147565b94505050508080611367906129b6565b91505061122e565b5050505050565b60008151116113ba576040517f08c379a00000000000000000000000000000000000000000000000000000000081526004016113b190612feb565b60405180910390fd5b60006113c46110d2565b9050600073ffffffffffffffffffffffffffffffffffffffff168373ffffffffffffffffffffffffffffffffffffffff1603611435576040517f08c379a000000000000000000000000000000000000000000000000000000000815260040161142c9061307d565b60405180910390fd5b60008160010160008573ffffffffffffffffffffffffffffffffffffffff1673ffffffffffffffffffffffffffffffffffffffff1681526020019081526020016000206000018054905090506000816bffffffffffffffffffffffff16036114a2576114a18285611994565b5b60005b83518110156115f05760008482815181106114c3576114c2612aca565b5b602002602001015190506000846000016000837bffffffffffffffffffffffffffffffffffffffffffffffffffffffff19167bffffffffffffffffffffffffffffffffffffffffffffffffffffffff1916815260200190815260200160002060000160009054906101000a900473ffffffffffffffffffffffffffffffffffffffff1690508673ffffffffffffffffffffffffffffffffffffffff168173ffffffffffffffffffffffffffffffffffffffff16036115b6576040517f08c379a00000000000000000000000000000000000000000000000000000000081526004016115ad906131ed565b60405180910390fd5b6115c1858284611c1c565b6115cd8583868a611a6f565b83806115d890613147565b945050505080806115e8906129b6565b9150506114a5565b5050505050565b600081511161163b576040517f08c379a000000000000000000000000000000000000000000000000000000000815260040161163290612feb565b60405180910390fd5b60006116456110d2565b9050600073ffffffffffffffffffffffffffffffffffffffff168373ffffffffffffffffffffffffffffffffffffffff16146116b6576040517f08c379a00000000000000000000000000000000000000000000000000000000081526004016116ad9061327f565b60405180910390fd5b60005b825181101561177c5760008382815181106116d7576116d6612aca565b5b602002602001015190506000836000016000837bffffffffffffffffffffffffffffffffffffffffffffffffffffffff19167bffffffffffffffffffffffffffffffffffffffffffffffffffffffff1916815260200190815260200160002060000160009054906101000a900473ffffffffffffffffffffffffffffffffffffffff169050611767848284611c1c565b50508080611774906129b6565b9150506116b9565b50505050565b600073ffffffffffffffffffffffffffffffffffffffff168273ffffffffffffffffffffffffffffffffffffffff16036117ff5760008151146117fa576040517f08c379a00000000000000000000000000000000000000000000000000000000081526004016117f190613311565b60405180910390fd5b611990565b6000815111611843576040517f08c379a000000000000000000000000000000000000000000000000000000000815260040161183a906133a3565b60405180910390fd5b3073ffffffffffffffffffffffffffffffffffffffff168273ffffffffffffffffffffffffffffffffffffffff161461189957611898826040518060600160405280602881526020016136336028913961227e565b5b6000808373ffffffffffffffffffffffffffffffffffffffff16836040516118c191906133ff565b600060405180830381855af49150503d80600081146118fc576040519150601f19603f3d011682016040523d82523d6000602084013e611901565b606091505b50915091508161198d5760008151111561195257806040517f08c379a0000000000000000000000000000000000000000000000000000000008152600401611949919061345a565b60405180910390fd5b6040517f08c379a0000000000000000000000000000000000000000000000000000000008152600401611984906134ee565b60405180910390fd5b50505b5050565b6119b68160405180606001604052806024815260200161365b6024913961227e565b81600201805490508260010160008373ffffffffffffffffffffffffffffffffffffffff1673ffffffffffffffffffffffffffffffffffffffff1681526020019081526020016000206001018190555081600201819080600181540180825580915050600190039060005260206000200160009091909190916101000a81548173ffffffffffffffffffffffffffffffffffffffff021916908373ffffffffffffffffffffffffffffffffffffffff1602179055505050565b81846000016000857bffffffffffffffffffffffffffffffffffffffffffffffffffffffff19167bffffffffffffffffffffffffffffffffffffffffffffffffffffffff1916815260200190815260200160002060000160146101000a8154816bffffffffffffffffffffffff02191690836bffffffffffffffffffffffff1602179055508360010160008273ffffffffffffffffffffffffffffffffffffffff1673ffffffffffffffffffffffffffffffffffffffff1681526020019081526020016000206000018390806001815401808255809150506001900390600052602060002090600891828204019190066004029091909190916101000a81548163ffffffff021916908360e01c021790555080846000016000857bffffffffffffffffffffffffffffffffffffffffffffffffffffffff19167bffffffffffffffffffffffffffffffffffffffffffffffffffffffff1916815260200190815260200160002060000160006101000a81548173ffffffffffffffffffffffffffffffffffffffff021916908373ffffffffffffffffffffffffffffffffffffffff16021790555050505050565b600073ffffffffffffffffffffffffffffffffffffffff168273ffffffffffffffffffffffffffffffffffffffff1603611c8b576040517f08c379a0000000000000000000000000000000000000000000000000000000008152600401611c8290613580565b60405180910390fd5b3073ffffffffffffffffffffffffffffffffffffffff168273ffffffffffffffffffffffffffffffffffffffff1603611cf9576040517f08c379a0000000000000000000000000000000000000000000000000000000008152600401611cf090613612565b60405180910390fd5b6000836000016000837bffffffffffffffffffffffffffffffffffffffffffffffffffffffff19167bffffffffffffffffffffffffffffffffffffffffffffffffffffffff1916815260200190815260200160002060000160149054906101000a90046bffffffffffffffffffffffff166bffffffffffffffffffffffff169050600060018560010160008673ffffffffffffffffffffffffffffffffffffffff1673ffffffffffffffffffffffffffffffffffffffff16815260200190815260200160002060000180549050611dd09190612924565b9050808214611f645760008560010160008673ffffffffffffffffffffffffffffffffffffffff1673ffffffffffffffffffffffffffffffffffffffff1681526020019081526020016000206000018281548110611e3157611e30612aca565b5b90600052602060002090600891828204019190066004029054906101000a900460e01b9050808660010160008773ffffffffffffffffffffffffffffffffffffffff1673ffffffffffffffffffffffffffffffffffffffff1681526020019081526020016000206000018481548110611ead57611eac612aca565b5b90600052602060002090600891828204019190066004026101000a81548163ffffffff021916908360e01c021790555082866000016000837bffffffffffffffffffffffffffffffffffffffffffffffffffffffff19167bffffffffffffffffffffffffffffffffffffffffffffffffffffffff1916815260200190815260200160002060000160146101000a8154816bffffffffffffffffffffffff02191690836bffffffffffffffffffffffff160217905550505b8460010160008573ffffffffffffffffffffffffffffffffffffffff1673ffffffffffffffffffffffffffffffffffffffff168152602001908152602001600020600001805480611fb857611fb7612987565b5b60019003818190600052602060002090600891828204019190066004026101000a81549063ffffffff02191690559055846000016000847bffffffffffffffffffffffffffffffffffffffffffffffffffffffff19167bffffffffffffffffffffffffffffffffffffffffffffffffffffffff19168152602001908152602001600020600080820160006101000a81549073ffffffffffffffffffffffffffffffffffffffff02191690556000820160146101000a8154906bffffffffffffffffffffffff0219169055505060008103612277576000600186600201805490506120a29190612924565b905060008660010160008773ffffffffffffffffffffffffffffffffffffffff1673ffffffffffffffffffffffffffffffffffffffff1681526020019081526020016000206001015490508181146121e357600087600201838154811061210c5761210b612aca565b5b9060005260206000200160009054906101000a900473ffffffffffffffffffffffffffffffffffffffff169050808860020183815481106121505761214f612aca565b5b9060005260206000200160006101000a81548173ffffffffffffffffffffffffffffffffffffffff021916908373ffffffffffffffffffffffffffffffffffffffff160217905550818860010160008373ffffffffffffffffffffffffffffffffffffffff1673ffffffffffffffffffffffffffffffffffffffff16815260200190815260200160002060010181905550505b866002018054806121f7576121f6612987565b5b6001900381819060005260206000200160006101000a81549073ffffffffffffffffffffffffffffffffffffffff021916905590558660010160008773ffffffffffffffffffffffffffffffffffffffff1673ffffffffffffffffffffffffffffffffffffffff1681526020019081526020016000206001016000905550505b5050505050565b6000823b90506000811182906122ca576040517f08c379a00000000000000000000000000000000000000000000000000000000081526004016122c1919061345a565b60405180910390fd5b50505050565b5080546000825560070160089004906000526020600020908101906122f591906123ee565b50565b6040518060600160405280600073ffffffffffffffffffffffffffffffffffffffff1681526020016000600281111561233457612333612958565b5b8152602001606081525090565b828054828255906000526020600020906007016008900481019282156123dd5791602002820160005b838211156123ab57835183826101000a81548163ffffffff021916908360e01c0217905550926020019260040160208160030104928301926001030261236a565b80156123db5782816101000a81549063ffffffff02191690556004016020816003010492830192600103026123ab565b505b5090506123ea91906123ee565b5090565b5b808211156124075760008160009055506001016123ef565b5090565b6000604051905090565b600080fd5b600080fd5b600080fd5b600080fd5b600080fd5b60008083601f8401126124445761244361241f565b5b8235905067ffffffffffffffff81111561246157612460612424565b5b60208301915083602082028301111561247d5761247c612429565b5b9250929050565b600073ffffffffffffffffffffffffffffffffffffffff82169050919050565b60006124af82612484565b9050919050565b6124bf816124a4565b81146124ca57600080fd5b50565b6000813590506124dc816124b6565b92915050565b60008083601f8401126124f8576124f761241f565b5b8235905067ffffffffffffffff81111561251557612514612424565b5b60208301915083600182028301111561253157612530612429565b5b9250929050565b60008060008060006060868803121561255457612553612415565b5b600086013567ffffffffffffffff8111156125725761257161241a565b5b61257e8882890161242e565b95509550506020612591888289016124cd565b935050604086013567ffffffffffffffff8111156125b2576125b161241a565b5b6125be888289016124e2565b92509250509295509295909350565b6000601f19601f8301169050919050565b7f4e487b7100000000000000000000000000000000000000000000000000000000600052604160045260246000fd5b612616826125cd565b810181811067ffffffffffffffff82111715612635576126346125de565b5b80604052505050565b600061264861240b565b9050612654828261260d565b919050565b600067ffffffffffffffff821115612674576126736125de565b5b602082029050602081019050919050565b600080fd5b600080fd5b6003811061269c57600080fd5b50565b6000813590506126ae8161268f565b92915050565b600067ffffffffffffffff8211156126cf576126ce6125de565b5b602082029050602081019050919050565b60007fffffffff0000000000000000000000000000000000000000000000000000000082169050919050565b612715816126e0565b811461272057600080fd5b50565b6000813590506127328161270c565b92915050565b600061274b612746846126b4565b61263e565b9050808382526020820190506020840283018581111561276e5761276d612429565b5b835b8181101561279757806127838882612723565b845260208401935050602081019050612770565b5050509392505050565b600082601f8301126127b6576127b561241f565b5b81356127c6848260208601612738565b91505092915050565b6000606082840312156127e5576127e4612685565b5b6127ef606061263e565b905060006127ff848285016124cd565b60008301525060206128138482850161269f565b602083015250604082013567ffffffffffffffff8111156128375761283661268a565b5b612843848285016127a1565b60408301525092915050565b600061286261285d84612659565b61263e565b9050808382526020820190506020840283018581111561288557612884612429565b5b835b818110156128cc57803567ffffffffffffffff8111156128aa576128a961241f565b5b8086016128b789826127cf565b85526020850194505050602081019050612887565b5050509392505050565b60006128e336848461284f565b905092915050565b6000819050919050565b7f4e487b7100000000000000000000000000000000000000000000000000000000600052601160045260246000fd5b600061292f826128eb565b915061293a836128eb565b9250828203905081811115612952576129516128f5565b5b92915050565b7f4e487b7100000000000000000000000000000000000000000000000000000000600052602160045260246000fd5b7f4e487b7100000000000000000000000000000000000000000000000000000000600052603160045260246000fd5b60006129c1826128eb565b91507fffffffffffffffffffffffffffffffffffffffffffffffffffffffffffffffff82036129f3576129f26128f5565b5b600182019050919050565b6000612a09826128eb565b915060008203612a1c57612a1b6128f5565b5b600182039050919050565b600082825260208201905092915050565b7f4c69624469616d6f6e643a204d75737420626520636f6e7472616374206f776e60008201527f6572000000000000000000000000000000000000000000000000000000000000602082015250565b6000612a94602283612a27565b9150612a9f82612a38565b604082019050919050565b60006020820190508181036000830152612ac381612a87565b9050919050565b7f4e487b7100000000000000000000000000000000000000000000000000000000600052603260045260246000fd5b600080fd5b600080fd5b600080fd5b600082356001606003833603038112612b2457612b23612af9565b5b80830191505092915050565b600060208284031215612b4657612b45612415565b5b6000612b548482850161269f565b91505092915050565b60008083356001602003843603038112612b7a57612b79612af9565b5b80840192508235915067ffffffffffffffff821115612b9c57612b9b612afe565b5b602083019250602082023603831315612bb857612bb7612b03565b5b509250929050565b600060208284031215612bd657612bd5612415565b5b6000612be484828501612723565b91505092915050565b7f4c69624469616d6f6e644375743a20496e636f7272656374204661636574437560008201527f74416374696f6e00000000000000000000000000000000000000000000000000602082015250565b6000612c49602783612a27565b9150612c5482612bed565b604082019050919050565b60006020820190508181036000830152612c7881612c3c565b9050919050565b600081519050919050565b600082825260208201905092915050565b6000819050602082019050919050565b612cb4816124a4565b82525050565b60038110612ccb57612cca612958565b5b50565b6000819050612cdc82612cba565b919050565b6000612cec82612cce565b9050919050565b612cfc81612ce1565b82525050565b600081519050919050565b600082825260208201905092915050565b6000819050602082019050919050565b612d37816126e0565b82525050565b6000612d498383612d2e565b60208301905092915050565b6000602082019050919050565b6000612d6d82612d02565b612d778185612d0d565b9350612d8283612d1e565b8060005b83811015612db3578151612d9a8882612d3d565b9750612da583612d55565b925050600181019050612d86565b5085935050505092915050565b6000606083016000830151612dd86000860182612cab565b506020830151612deb6020860182612cf3565b5060408301518482036040860152612e038282612d62565b9150508091505092915050565b6000612e1c8383612dc0565b905092915050565b6000602082019050919050565b6000612e3c82612c7f565b612e468185612c8a565b935083602082028501612e5885612c9b565b8060005b85811015612e945784840389528151612e758582612e10565b9450612e8083612e24565b925060208a01995050600181019050612e5c565b50829750879550505050505092915050565b612eaf816124a4565b82525050565b600081519050919050565b600082825260208201905092915050565b60005b83811015612eef578082015181840152602081019050612ed4565b60008484015250505050565b6000612f0682612eb5565b612f108185612ec0565b9350612f20818560208601612ed1565b612f29816125cd565b840191505092915050565b60006060820190508181036000830152612f4e8186612e31565b9050612f5d6020830185612ea6565b8181036040830152612f6f8184612efb565b9050949350505050565b7f4c69624469616d6f6e644375743a204e6f2073656c6563746f727320696e206660008201527f6163657420746f20637574000000000000000000000000000000000000000000602082015250565b6000612fd5602b83612a27565b9150612fe082612f79565b604082019050919050565b6000602082019050818103600083015261300481612fc8565b9050919050565b7f4c69624469616d6f6e644375743a204164642066616365742063616e2774206260008201527f6520616464726573732830290000000000000000000000000000000000000000602082015250565b6000613067602c83612a27565b91506130728261300b565b604082019050919050565b600060208201905081810360008301526130968161305a565b9050919050565b7f4c69624469616d6f6e644375743a2043616e2774206164642066756e6374696f60008201527f6e207468617420616c7265616479206578697374730000000000000000000000602082015250565b60006130f9603583612a27565b91506131048261309d565b604082019050919050565b60006020820190508181036000830152613128816130ec565b9050919050565b60006bffffffffffffffffffffffff82169050919050565b60006131528261312f565b91506bffffffffffffffffffffffff82036131705761316f6128f5565b5b600182019050919050565b7f4c69624469616d6f6e644375743a2043616e2774207265706c6163652066756e60008201527f6374696f6e20776974682073616d652066756e6374696f6e0000000000000000602082015250565b60006131d7603883612a27565b91506131e28261317b565b604082019050919050565b60006020820190508181036000830152613206816131ca565b9050919050565b7f4c69624469616d6f6e644375743a2052656d6f7665206661636574206164647260008201527f657373206d757374206265206164647265737328302900000000000000000000602082015250565b6000613269603683612a27565b91506132748261320d565b604082019050919050565b600060208201905081810360008301526132988161325c565b9050919050565b7f4c69624469616d6f6e644375743a205f696e697420697320616464726573732860008201527f3029206275745f63616c6c64617461206973206e6f7420656d70747900000000602082015250565b60006132fb603c83612a27565b91506133068261329f565b604082019050919050565b6000602082019050818103600083015261332a816132ee565b9050919050565b7f4c69624469616d6f6e644375743a205f63616c6c6461746120697320656d707460008201527f7920627574205f696e6974206973206e6f742061646472657373283029000000602082015250565b600061338d603d83612a27565b915061339882613331565b604082019050919050565b600060208201905081810360008301526133bc81613380565b9050919050565b600081905092915050565b60006133d982612eb5565b6133e381856133c3565b93506133f3818560208601612ed1565b80840191505092915050565b600061340b82846133ce565b915081905092915050565b600081519050919050565b600061342c82613416565b6134368185612a27565b9350613446818560208601612ed1565b61344f816125cd565b840191505092915050565b600060208201905081810360008301526134748184613421565b905092915050565b7f4c69624469616d6f6e644375743a205f696e69742066756e6374696f6e20726560008201527f7665727465640000000000000000000000000000000000000000000000000000602082015250565b60006134d8602683612a27565b91506134e38261347c565b604082019050919050565b60006020820190508181036000830152613507816134cb565b9050919050565b7f4c69624469616d6f6e644375743a2043616e27742072656d6f76652066756e6360008201527f74696f6e207468617420646f65736e2774206578697374000000000000000000602082015250565b600061356a603783612a27565b91506135758261350e565b604082019050919050565b600060208201905081810360008301526135998161355d565b9050919050565b7f4c69624469616d6f6e644375743a2043616e27742072656d6f766520696d6d7560008201527f7461626c652066756e6374696f6e000000000000000000000000000000000000602082015250565b60006135fc602e83612a27565b9150613607826135a0565b604082019050919050565b6000602082019050818103600083015261362b816135ef565b905091905056fe4c69624469616d6f6e644375743a205f696e6974206164647265737320686173206e6f20636f64654c69624469616d6f6e644375743a204e657720666163657420686173206e6f20636f6465a2646970667358221220adc30d091900fb78537dfc32df4fec9380087511f241dbff95c65145d61b8df264736f6c63430008100033",
  "linkReferences": {},
  "deployedLinkReferences": {}
}